{
  "contractName": "Lottery",
  "abi": [
    {
      "inputs": [],
      "stateMutability": "nonpayable",
      "type": "constructor"
    },
    {
      "inputs": [],
      "name": "costPerLine",
      "outputs": [
        {
          "internalType": "uint256",
          "name": "",
          "type": "uint256"
        }
      ],
      "stateMutability": "view",
      "type": "function",
      "constant": true
    },
    {
      "inputs": [
        {
          "internalType": "address",
          "name": "",
          "type": "address"
        }
      ],
      "name": "enteredAddress",
      "outputs": [
        {
          "internalType": "bool",
          "name": "",
          "type": "bool"
        }
      ],
      "stateMutability": "view",
      "type": "function",
      "constant": true
    },
    {
      "inputs": [
        {
          "internalType": "address",
          "name": "",
          "type": "address"
        },
        {
          "internalType": "uint256",
          "name": "",
          "type": "uint256"
        }
      ],
      "name": "pickedNumbers",
      "outputs": [
        {
          "internalType": "uint8",
          "name": "",
          "type": "uint8"
        }
      ],
      "stateMutability": "view",
      "type": "function",
      "constant": true
    },
    {
      "inputs": [
        {
          "internalType": "address",
          "name": "",
          "type": "address"
        },
        {
          "internalType": "uint8",
          "name": "",
          "type": "uint8"
        }
      ],
      "name": "playerWinningNumbers",
      "outputs": [
        {
          "internalType": "bool",
          "name": "",
          "type": "bool"
        }
      ],
      "stateMutability": "view",
      "type": "function",
      "constant": true
    },
    {
      "inputs": [
        {
          "internalType": "uint256",
          "name": "",
          "type": "uint256"
        }
      ],
      "name": "winningNumbers",
      "outputs": [
        {
          "internalType": "uint8",
          "name": "",
          "type": "uint8"
        }
      ],
      "stateMutability": "view",
      "type": "function",
      "constant": true
    },
    {
      "inputs": [],
      "name": "enterLottery",
      "outputs": [],
      "stateMutability": "payable",
      "type": "function",
      "payable": true
    },
    {
      "inputs": [
        {
          "internalType": "uint8",
          "name": "_0",
          "type": "uint8"
        },
        {
          "internalType": "uint8",
          "name": "_1",
          "type": "uint8"
        },
        {
          "internalType": "uint8",
          "name": "_2",
          "type": "uint8"
        },
        {
          "internalType": "uint8",
          "name": "_3",
          "type": "uint8"
        },
        {
          "internalType": "uint8",
          "name": "_4",
          "type": "uint8"
        },
        {
          "internalType": "uint8",
          "name": "_5",
          "type": "uint8"
        },
        {
          "internalType": "uint8",
          "name": "_6",
          "type": "uint8"
        }
      ],
      "name": "chooseNumbers",
      "outputs": [],
      "stateMutability": "nonpayable",
      "type": "function"
    },
    {
      "inputs": [
        {
          "internalType": "uint8",
          "name": "_0",
          "type": "uint8"
        },
        {
          "internalType": "uint8",
          "name": "_1",
          "type": "uint8"
        },
        {
          "internalType": "uint8",
          "name": "_2",
          "type": "uint8"
        },
        {
          "internalType": "uint8",
          "name": "_3",
          "type": "uint8"
        },
        {
          "internalType": "uint8",
          "name": "_4",
          "type": "uint8"
        },
        {
          "internalType": "uint8",
          "name": "_5",
          "type": "uint8"
        },
        {
          "internalType": "uint8",
          "name": "_6",
          "type": "uint8"
        }
      ],
      "name": "checkNumbers",
      "outputs": [],
      "stateMutability": "payable",
      "type": "function",
      "payable": true
    }
  ],
  "bytecode": "0x608060405234801561001057600080fd5b5061103d806100206000396000f3fe60806040526004361061007b5760003560e01c806356f281661161004e57806356f2816614610141578063c07ebc241461016a578063c1af5785146101a7578063ee13514a146101b15761007b565b80630836e7f0146100805780633d4fcef7146100bd578063478912ce146100e85780634e45f09514610104575b600080fd5b34801561008c57600080fd5b506100a760048036038101906100a29190610d43565b6101ee565b6040516100b49190610d9e565b60405180910390f35b3480156100c957600080fd5b506100d261021d565b6040516100df9190610dd2565b60405180910390f35b61010260048036038101906100fd9190610ded565b610223565b005b34801561011057600080fd5b5061012b60048036038101906101269190610ebb565b61083f565b6040516101389190610ef7565b60405180910390f35b34801561014d57600080fd5b5061016860048036038101906101639190610ded565b610869565b005b34801561017657600080fd5b50610191600480360381019061018c9190610f12565b610b97565b60405161019e9190610ef7565b60405180910390f35b6101af610bd0565b005b3480156101bd57600080fd5b506101d860048036038101906101d39190610f52565b610c87565b6040516101e59190610d9e565b60405180910390f35b60046020528160005260406000206020528060005260406000206000915091509054906101000a900460ff1681565b60005481565b600160006007811061023857610237610f7f565b5b602091828204019190069054906101000a900460ff1660ff168760ff1614156102c8576001600460003373ffffffffffffffffffffffffffffffffffffffff1673ffffffffffffffffffffffffffffffffffffffff16815260200190815260200160002060008060ff16815260200190815260200160002060006101000a81548160ff0219169083151502179055505b600180600781106102dc576102db610f7f565b5b602091828204019190069054906101000a900460ff1660ff168660ff16141561036d576001600460003373ffffffffffffffffffffffffffffffffffffffff1673ffffffffffffffffffffffffffffffffffffffff1681526020019081526020016000206000600160ff16815260200190815260200160002060006101000a81548160ff0219169083151502179055505b600160026007811061038257610381610f7f565b5b602091828204019190069054906101000a900460ff1660ff168560ff161415610413576001600460003373ffffffffffffffffffffffffffffffffffffffff1673ffffffffffffffffffffffffffffffffffffffff1681526020019081526020016000206000600260ff16815260200190815260200160002060006101000a81548160ff0219169083151502179055505b600160036007811061042857610427610f7f565b5b602091828204019190069054906101000a900460ff1660ff168460ff1614156104b9576001600460003373ffffffffffffffffffffffffffffffffffffffff1673ffffffffffffffffffffffffffffffffffffffff1681526020019081526020016000206000600360ff16815260200190815260200160002060006101000a81548160ff0219169083151502179055505b60016004600781106104ce576104cd610f7f565b5b602091828204019190069054906101000a900460ff1660ff168360ff16141561055f576001600460003373ffffffffffffffffffffffffffffffffffffffff1673ffffffffffffffffffffffffffffffffffffffff1681526020019081526020016000206000600460ff16815260200190815260200160002060006101000a81548160ff0219169083151502179055505b600160056007811061057457610573610f7f565b5b602091828204019190069054906101000a900460ff1660ff168260ff161415610605576001600460003373ffffffffffffffffffffffffffffffffffffffff1673ffffffffffffffffffffffffffffffffffffffff1681526020019081526020016000206000600560ff16815260200190815260200160002060006101000a81548160ff0219169083151502179055505b600160066007811061061a57610619610f7f565b5b602091828204019190069054906101000a900460ff1660ff168160ff1614156106ab576001600460003373ffffffffffffffffffffffffffffffffffffffff1673ffffffffffffffffffffffffffffffffffffffff1681526020019081526020016000206000600660ff16815260200190815260200160002060006101000a81548160ff0219169083151502179055505b600080600560006101000a81548160ff021916908360ff1602179055505b6007600560009054906101000a900460ff1660ff1610156108355760008160ff16146106f457600080fd5b60011515600460003373ffffffffffffffffffffffffffffffffffffffff1673ffffffffffffffffffffffffffffffffffffffff1681526020019081526020016000206000600560009054906101000a900460ff1660ff1660ff16815260200190815260200160002060009054906101000a900460ff16151514156107f857808061077e90610fdd565b91505060001515600460003373ffffffffffffffffffffffffffffffffffffffff1673ffffffffffffffffffffffffffffffffffffffff1681526020019081526020016000206000600560009054906101000a900460ff1660ff1660ff16815260200190815260200160002060009054906101000a905050505b6005600081819054906101000a900460ff168092919061081790610fdd565b91906101000a81548160ff021916908360ff160217905550506106c9565b5050505050505050565b6001816007811061084f57600080fd5b60209182820401919006915054906101000a900460ff1681565b86600360003373ffffffffffffffffffffffffffffffffffffffff1673ffffffffffffffffffffffffffffffffffffffff1681526020019081526020016000206000600781106108bc576108bb610f7f565b5b602091828204019190066101000a81548160ff021916908360ff16021790555085600360003373ffffffffffffffffffffffffffffffffffffffff1673ffffffffffffffffffffffffffffffffffffffff16815260200190815260200160002060016007811061092f5761092e610f7f565b5b602091828204019190066101000a81548160ff021916908360ff16021790555084600360003373ffffffffffffffffffffffffffffffffffffffff1673ffffffffffffffffffffffffffffffffffffffff1681526020019081526020016000206002600781106109a2576109a1610f7f565b5b602091828204019190066101000a81548160ff021916908360ff16021790555083600360003373ffffffffffffffffffffffffffffffffffffffff1673ffffffffffffffffffffffffffffffffffffffff168152602001908152602001600020600360078110610a1557610a14610f7f565b5b602091828204019190066101000a81548160ff021916908360ff16021790555082600360003373ffffffffffffffffffffffffffffffffffffffff1673ffffffffffffffffffffffffffffffffffffffff168152602001908152602001600020600460078110610a8857610a87610f7f565b5b602091828204019190066101000a81548160ff021916908360ff16021790555081600360003373ffffffffffffffffffffffffffffffffffffffff1673ffffffffffffffffffffffffffffffffffffffff168152602001908152602001600020600560078110610afb57610afa610f7f565b5b602091828204019190066101000a81548160ff021916908360ff16021790555080600360003373ffffffffffffffffffffffffffffffffffffffff1673ffffffffffffffffffffffffffffffffffffffff168152602001908152602001600020600660078110610b6e57610b6d610f7f565b5b602091828204019190066101000a81548160ff021916908360ff16021790555050505050505050565b60036020528160005260406000208160078110610bb357600080fd5b60209182820401919006915091509054906101000a900460ff1681565b60001515600260003373ffffffffffffffffffffffffffffffffffffffff1673ffffffffffffffffffffffffffffffffffffffff16815260200190815260200160002060009054906101000a900460ff16151514610c2d57600080fd5b6001600260003373ffffffffffffffffffffffffffffffffffffffff1673ffffffffffffffffffffffffffffffffffffffff16815260200190815260200160002060006101000a81548160ff021916908315150217905550565b60026020528060005260406000206000915054906101000a900460ff1681565b600080fd5b600073ffffffffffffffffffffffffffffffffffffffff82169050919050565b6000610cd782610cac565b9050919050565b610ce781610ccc565b8114610cf257600080fd5b50565b600081359050610d0481610cde565b92915050565b600060ff82169050919050565b610d2081610d0a565b8114610d2b57600080fd5b50565b600081359050610d3d81610d17565b92915050565b60008060408385031215610d5a57610d59610ca7565b5b6000610d6885828601610cf5565b9250506020610d7985828601610d2e565b9150509250929050565b60008115159050919050565b610d9881610d83565b82525050565b6000602082019050610db36000830184610d8f565b92915050565b6000819050919050565b610dcc81610db9565b82525050565b6000602082019050610de76000830184610dc3565b92915050565b600080600080600080600060e0888a031215610e0c57610e0b610ca7565b5b6000610e1a8a828b01610d2e565b9750506020610e2b8a828b01610d2e565b9650506040610e3c8a828b01610d2e565b9550506060610e4d8a828b01610d2e565b9450506080610e5e8a828b01610d2e565b93505060a0610e6f8a828b01610d2e565b92505060c0610e808a828b01610d2e565b91505092959891949750929550565b610e9881610db9565b8114610ea357600080fd5b50565b600081359050610eb581610e8f565b92915050565b600060208284031215610ed157610ed0610ca7565b5b6000610edf84828501610ea6565b91505092915050565b610ef181610d0a565b82525050565b6000602082019050610f0c6000830184610ee8565b92915050565b60008060408385031215610f2957610f28610ca7565b5b6000610f3785828601610cf5565b9250506020610f4885828601610ea6565b9150509250929050565b600060208284031215610f6857610f67610ca7565b5b6000610f7684828501610cf5565b91505092915050565b7f4e487b7100000000000000000000000000000000000000000000000000000000600052603260045260246000fd5b7f4e487b7100000000000000000000000000000000000000000000000000000000600052601160045260246000fd5b6000610fe882610d0a565b915060ff821415610ffc57610ffb610fae565b5b60018201905091905056fea264697066735822122036ade94821417a0fabff1e41bb0e9063e78e14729e471269f7cda5cdea82ee2764736f6c634300080a0033",
  "immutableReferences": {},
  "source": "pragma solidity ^0.8.10;\n\ncontract Lottery {\n    uint256 public costPerLine;\n    uint8[7] public winningNumbers;\n    mapping(address => bool) public enteredAddress;\n    mapping(address => uint8[7]) public pickedNumbers;\n    mapping(address => mapping(uint8 => bool)) public playerWinningNumbers;\n    uint8 index;\n    bool wonFreeTicket;\n\n    constructor() {}\n\n    function enterLottery() public payable {\n        require(enteredAddress[msg.sender] == false);\n        enteredAddress[msg.sender] = true;\n    }\n\n    // Takes in 7 chosen numbers and assigns them to the pickedNumbers mapping.\n    //TRY CLEANING UP\n    function chooseNumbers(\n        uint8 _0,\n        uint8 _1,\n        uint8 _2,\n        uint8 _3,\n        uint8 _4,\n        uint8 _5,\n        uint8 _6\n    ) public {\n        pickedNumbers[msg.sender][0] = _0;\n        pickedNumbers[msg.sender][1] = _1;\n        pickedNumbers[msg.sender][2] = _2;\n        pickedNumbers[msg.sender][3] = _3;\n        pickedNumbers[msg.sender][4] = _4;\n        pickedNumbers[msg.sender][5] = _5;\n        pickedNumbers[msg.sender][6] = _6;\n    }\n\n    //NEEDS WORK! UNFINISHED\n    /* function pickWinningNumbers() view {\n        uint8 randomNumber;\n        keccak256(randomNumber);\n    } */\n\n    /* Check Correct Numbers and add up the total correct answers to the\n    correctNumbers variable. Also resets the playerWinningNumbers mapping\n    back to a status of false. */\n    //TRY CLEANING UP\n    function checkNumbers(\n        uint8 _0,\n        uint8 _1,\n        uint8 _2,\n        uint8 _3,\n        uint8 _4,\n        uint8 _5,\n        uint8 _6\n    ) public payable {\n        if (_0 == winningNumbers[0]) {\n            playerWinningNumbers[msg.sender][0] = true;\n        }\n        if (_1 == winningNumbers[1]) {\n            playerWinningNumbers[msg.sender][1] = true;\n        }\n        if (_2 == winningNumbers[2]) {\n            playerWinningNumbers[msg.sender][2] = true;\n        }\n        if (_3 == winningNumbers[3]) {\n            playerWinningNumbers[msg.sender][3] = true;\n        }\n        if (_4 == winningNumbers[4]) {\n            playerWinningNumbers[msg.sender][4] = true;\n        }\n        if (_5 == winningNumbers[5]) {\n            playerWinningNumbers[msg.sender][5] = true;\n        }\n        if (_6 == winningNumbers[6]) {\n            playerWinningNumbers[msg.sender][6] = true;\n        }\n\n        uint8 correctNumbers;\n        correctNumbers = 0;\n\n        for (index = 0; index < 7; index++) {\n            require(correctNumbers == 0);\n            if (playerWinningNumbers[msg.sender][index] == true) {\n                correctNumbers++;\n                playerWinningNumbers[msg.sender][index] == false;\n            }\n        }\n\n        if (correctNumbers == 3) {\n            //FREE TICKET\n        }\n        if (correctNumbers == 4) {\n            //20 Dollars\n        }\n        if (correctNumbers == 5) {\n            //3.5% of Prize Pool\n        }\n        if (correctNumbers == 6) {\n            //2.5% of Prize Pool\n        }\n        if (correctNumbers == 7) {\n            //87.25% of Prize Pool\n        }\n    }\n\n    /* function freeTicket() {\n        require(wonFreeTicket == true);\n        //RNG Random set of Numbers similar to how winningNumbers is generated\n    }\n\n    function weeklyReset() {\n\n    } */\n}\n",
  "sourcePath": "/home/dante/Documents/CryptoLottery/contracts/Lottery.sol",
  "compiler": {
    "name": "solc",
    "version": "0.8.10+commit.fc410830.Emscripten.clang"
  },
  "schemaVersion": "3.4.1",
  "updatedAt": "2021-11-21T21:11:34.471Z",
  "networkType": "ethereum",
  "devdoc": {
    "kind": "dev",
    "methods": {},
    "version": 1
  },
  "userdoc": {
    "kind": "user",
    "methods": {},
    "version": 1
  }
}