{
  "contractName": "Lottery",
  "abi": [
    {
      "inputs": [
        {
          "internalType": "uint256",
          "name": "_costPerLine",
          "type": "uint256"
        },
        {
          "internalType": "contract ISwapRouter",
          "name": "_swapRouter",
          "type": "address"
        }
      ],
      "stateMutability": "nonpayable",
      "type": "constructor"
    },
    {
      "inputs": [],
      "name": "ETH",
      "outputs": [
        {
          "internalType": "address",
          "name": "",
          "type": "address"
        }
      ],
      "stateMutability": "view",
      "type": "function"
    },
    {
      "inputs": [],
      "name": "LINK",
      "outputs": [
        {
          "internalType": "address",
          "name": "",
          "type": "address"
        }
      ],
      "stateMutability": "view",
      "type": "function"
    },
    {
      "inputs": [],
      "name": "WETH9",
      "outputs": [
        {
          "internalType": "address",
          "name": "",
          "type": "address"
        }
      ],
      "stateMutability": "view",
      "type": "function"
    },
    {
      "inputs": [
        {
          "internalType": "address",
          "name": "",
          "type": "address"
        }
      ],
      "name": "correctNumbers",
      "outputs": [
        {
          "internalType": "uint8",
          "name": "",
          "type": "uint8"
        }
      ],
      "stateMutability": "view",
      "type": "function"
    },
    {
      "inputs": [],
      "name": "costPerLine",
      "outputs": [
        {
          "internalType": "uint256",
          "name": "",
          "type": "uint256"
        }
      ],
      "stateMutability": "view",
      "type": "function"
    },
    {
      "inputs": [
        {
          "internalType": "uint256",
          "name": "",
          "type": "uint256"
        }
      ],
      "name": "fiveCorrect",
      "outputs": [
        {
          "internalType": "address payable",
          "name": "",
          "type": "address"
        }
      ],
      "stateMutability": "view",
      "type": "function"
    },
    {
      "inputs": [],
      "name": "fivePool",
      "outputs": [
        {
          "internalType": "uint256",
          "name": "",
          "type": "uint256"
        }
      ],
      "stateMutability": "view",
      "type": "function"
    },
    {
      "inputs": [
        {
          "internalType": "uint256",
          "name": "",
          "type": "uint256"
        }
      ],
      "name": "fourCorrect",
      "outputs": [
        {
          "internalType": "address payable",
          "name": "",
          "type": "address"
        }
      ],
      "stateMutability": "view",
      "type": "function"
    },
    {
      "inputs": [],
      "name": "fourPool",
      "outputs": [
        {
          "internalType": "uint256",
          "name": "",
          "type": "uint256"
        }
      ],
      "stateMutability": "view",
      "type": "function"
    },
    {
      "inputs": [
        {
          "internalType": "address",
          "name": "",
          "type": "address"
        }
      ],
      "name": "isAddressEntered",
      "outputs": [
        {
          "internalType": "bool",
          "name": "",
          "type": "bool"
        }
      ],
      "stateMutability": "view",
      "type": "function"
    },
    {
      "inputs": [
        {
          "internalType": "address",
          "name": "",
          "type": "address"
        },
        {
          "internalType": "uint256",
          "name": "",
          "type": "uint256"
        }
      ],
      "name": "pickedNumbers",
      "outputs": [
        {
          "internalType": "uint8",
          "name": "",
          "type": "uint8"
        }
      ],
      "stateMutability": "view",
      "type": "function"
    },
    {
      "inputs": [],
      "name": "poolOwner",
      "outputs": [
        {
          "internalType": "address payable",
          "name": "",
          "type": "address"
        }
      ],
      "stateMutability": "view",
      "type": "function"
    },
    {
      "inputs": [
        {
          "internalType": "uint256",
          "name": "",
          "type": "uint256"
        }
      ],
      "name": "sevenCorrect",
      "outputs": [
        {
          "internalType": "address payable",
          "name": "",
          "type": "address"
        }
      ],
      "stateMutability": "view",
      "type": "function"
    },
    {
      "inputs": [],
      "name": "sevenPool",
      "outputs": [
        {
          "internalType": "uint256",
          "name": "",
          "type": "uint256"
        }
      ],
      "stateMutability": "view",
      "type": "function"
    },
    {
      "inputs": [
        {
          "internalType": "uint256",
          "name": "",
          "type": "uint256"
        }
      ],
      "name": "sixCorrect",
      "outputs": [
        {
          "internalType": "address payable",
          "name": "",
          "type": "address"
        }
      ],
      "stateMutability": "view",
      "type": "function"
    },
    {
      "inputs": [],
      "name": "sixPool",
      "outputs": [
        {
          "internalType": "uint256",
          "name": "",
          "type": "uint256"
        }
      ],
      "stateMutability": "view",
      "type": "function"
    },
    {
      "inputs": [],
      "name": "swapRouter",
      "outputs": [
        {
          "internalType": "contract ISwapRouter",
          "name": "",
          "type": "address"
        }
      ],
      "stateMutability": "view",
      "type": "function"
    },
    {
      "inputs": [
        {
          "internalType": "uint256",
          "name": "",
          "type": "uint256"
        }
      ],
      "name": "threeCorrect",
      "outputs": [
        {
          "internalType": "address payable",
          "name": "",
          "type": "address"
        }
      ],
      "stateMutability": "view",
      "type": "function"
    },
    {
      "inputs": [],
      "name": "threePool",
      "outputs": [
        {
          "internalType": "uint256",
          "name": "",
          "type": "uint256"
        }
      ],
      "stateMutability": "view",
      "type": "function"
    },
    {
      "inputs": [],
      "name": "totalPrizePool",
      "outputs": [
        {
          "internalType": "uint256",
          "name": "",
          "type": "uint256"
        }
      ],
      "stateMutability": "view",
      "type": "function"
    },
    {
      "inputs": [
        {
          "internalType": "uint256",
          "name": "",
          "type": "uint256"
        }
      ],
      "name": "winningNumbers",
      "outputs": [
        {
          "internalType": "uint8",
          "name": "",
          "type": "uint8"
        }
      ],
      "stateMutability": "view",
      "type": "function"
    },
    {
      "inputs": [
        {
          "internalType": "uint256",
          "name": "amountInMaximum",
          "type": "uint256"
        }
      ],
      "name": "swapExactOutputSingle",
      "outputs": [
        {
          "internalType": "uint256",
          "name": "amountIn",
          "type": "uint256"
        }
      ],
      "stateMutability": "nonpayable",
      "type": "function"
    },
    {
      "inputs": [
        {
          "internalType": "uint8",
          "name": "_0",
          "type": "uint8"
        },
        {
          "internalType": "uint8",
          "name": "_1",
          "type": "uint8"
        },
        {
          "internalType": "uint8",
          "name": "_2",
          "type": "uint8"
        },
        {
          "internalType": "uint8",
          "name": "_3",
          "type": "uint8"
        },
        {
          "internalType": "uint8",
          "name": "_4",
          "type": "uint8"
        },
        {
          "internalType": "uint8",
          "name": "_5",
          "type": "uint8"
        },
        {
          "internalType": "uint8",
          "name": "_6",
          "type": "uint8"
        }
      ],
      "name": "chooseNumbers",
      "outputs": [],
      "stateMutability": "payable",
      "type": "function"
    },
    {
      "inputs": [],
      "name": "pickWinningNumbers",
      "outputs": [],
      "stateMutability": "payable",
      "type": "function"
    },
    {
      "inputs": [],
      "name": "checkNumbers",
      "outputs": [],
      "stateMutability": "nonpayable",
      "type": "function"
    },
    {
      "inputs": [],
      "name": "weeklyReset",
      "outputs": [],
      "stateMutability": "payable",
      "type": "function"
    }
  ],
  "bytecode": "0x60a060405273c02aaa39b223fe8d0a0e5c4f27ead9083c756cc26000806101000a81548173ffffffffffffffffffffffffffffffffffffffff021916908373ffffffffffffffffffffffffffffffffffffffff1602179055506000600160006101000a81548173ffffffffffffffffffffffffffffffffffffffff021916908373ffffffffffffffffffffffffffffffffffffffff16021790555073a36085f69e2889c224210f603d836748e7dc0088600260006101000a81548173ffffffffffffffffffffffffffffffffffffffff021916908373ffffffffffffffffffffffffffffffffffffffff160217905550348015620000fc57600080fd5b5060405162002fe238038062002fe283398181016040528101906200012291906200025f565b8073ffffffffffffffffffffffffffffffffffffffff1660808173ffffffffffffffffffffffffffffffffffffffff168152505033600660006101000a81548173ffffffffffffffffffffffffffffffffffffffff021916908373ffffffffffffffffffffffffffffffffffffffff160217905550816003819055505050620002a6565b600080fd5b6000819050919050565b620001c081620001ab565b8114620001cc57600080fd5b50565b600081519050620001e081620001b5565b92915050565b600073ffffffffffffffffffffffffffffffffffffffff82169050919050565b60006200021382620001e6565b9050919050565b6000620002278262000206565b9050919050565b62000239816200021a565b81146200024557600080fd5b50565b60008151905062000259816200022e565b92915050565b60008060408385031215620002795762000278620001a6565b5b60006200028985828601620001cf565b92505060206200029c8582860162000248565b9150509250929050565b608051612d0b620002d76000396000818161150f01528181611619015281816116e501526120240152612d0b6000f3fe6080604052600436106101815760003560e01c806386451e9b116100d1578063a90ef7b91161008a578063c07ebc2411610064578063c07ebc2414610575578063c31c9c07146105b2578063cf0b2270146105dd578063e9eb03bb1461060857610181565b8063a90ef7b914610503578063a9cdcc911461050d578063b1c3c1641461053857610181565b806386451e9b146103b9578063874f9128146103f6578063889ad54c1461042157806394ff458f1461045e5780639be72c941461049b578063a149303c146104d857610181565b80634f4608941161013e5780636139be54116101185780636139be54146102d75780637a8a6289146103145780638322fff21461035157806385ea32971461037c57610181565b80634f460894146102795780635305bd8e1461029057806356f28166146102bb57610181565b806308f672ac146101865780631b6b6d2314610190578063398ab9a7146101bb5780633d4fcef7146101e65780634aa4a4fc146102115780634e45f0951461023c575b600080fd5b61018e610633565b005b34801561019c57600080fd5b506101a561080e565b6040516101b2919061239b565b60405180910390f35b3480156101c757600080fd5b506101d0610834565b6040516101dd91906123cf565b60405180910390f35b3480156101f257600080fd5b506101fb61083a565b60405161020891906123cf565b60405180910390f35b34801561021d57600080fd5b50610226610840565b604051610233919061239b565b60405180910390f35b34801561024857600080fd5b50610263600480360381019061025e919061241b565b610864565b6040516102709190612464565b60405180910390f35b34801561028557600080fd5b5061028e61088e565b005b34801561029c57600080fd5b506102a5610e9f565b6040516102b291906123cf565b60405180910390f35b6102d560048036038101906102d091906124ab565b610ea5565b005b3480156102e357600080fd5b506102fe60048036038101906102f9919061241b565b611382565b60405161030b919061256e565b60405180910390f35b34801561032057600080fd5b5061033b600480360381019061033691906125b5565b6113c1565b6040516103489190612464565b60405180910390f35b34801561035d57600080fd5b506103666113e1565b604051610373919061239b565b60405180910390f35b34801561038857600080fd5b506103a3600480360381019061039e919061241b565b611407565b6040516103b0919061256e565b60405180910390f35b3480156103c557600080fd5b506103e060048036038101906103db919061241b565b611446565b6040516103ed919061256e565b60405180910390f35b34801561040257600080fd5b5061040b611485565b60405161041891906123cf565b60405180910390f35b34801561042d57600080fd5b506104486004803603810190610443919061241b565b61148b565b60405161045591906123cf565b60405180910390f35b34801561046a57600080fd5b506104856004803603810190610480919061241b565b61174a565b604051610492919061256e565b60405180910390f35b3480156104a757600080fd5b506104c260048036038101906104bd91906125b5565b611789565b6040516104cf91906125fd565b60405180910390f35b3480156104e457600080fd5b506104ed6117a9565b6040516104fa91906123cf565b60405180910390f35b61050b6117af565b005b34801561051957600080fd5b50610522611fa4565b60405161052f91906123cf565b60405180910390f35b34801561054457600080fd5b5061055f600480360381019061055a919061241b565b611faa565b60405161056c919061256e565b60405180910390f35b34801561058157600080fd5b5061059c60048036038101906105979190612618565b611fe9565b6040516105a99190612464565b60405180910390f35b3480156105be57600080fd5b506105c7612022565b6040516105d491906126b7565b60405180910390f35b3480156105e957600080fd5b506105f2612046565b6040516105ff919061256e565b60405180910390f35b34801561061457600080fd5b5061061d61206c565b60405161062a91906123cf565b60405180910390f35b600660009054906101000a900473ffffffffffffffffffffffffffffffffffffffff1673ffffffffffffffffffffffffffffffffffffffff163373ffffffffffffffffffffffffffffffffffffffff161461068d57600080fd5b600160046000600781106106a4576106a36126d2565b5b602091828204019190066101000a81548160ff021916908360ff160217905550600260046001600781106106db576106da6126d2565b5b602091828204019190066101000a81548160ff021916908360ff16021790555060036004600260078110610712576107116126d2565b5b602091828204019190066101000a81548160ff021916908360ff160217905550600480600360078110610748576107476126d2565b5b602091828204019190066101000a81548160ff021916908360ff16021790555060056004806007811061077e5761077d6126d2565b5b602091828204019190066101000a81548160ff021916908360ff160217905550600660046005600781106107b5576107b46126d2565b5b602091828204019190066101000a81548160ff021916908360ff160217905550600760046006600781106107ec576107eb6126d2565b5b602091828204019190066101000a81548160ff021916908360ff160217905550565b600260009054906101000a900473ffffffffffffffffffffffffffffffffffffffff1681565b60055481565b60035481565b60008054906101000a900473ffffffffffffffffffffffffffffffffffffffff1681565b6004816007811061087457600080fd5b60209182820401919006915054906101000a900460ff1681565b600760003373ffffffffffffffffffffffffffffffffffffffff1673ffffffffffffffffffffffffffffffffffffffff16815260200190815260200160002060009054906101000a900460ff166108e457600080fd5b60006014819055505b60076014541015610a2c5760046014546007811061090e5761090d6126d2565b5b602091828204019190069054906101000a900460ff1660ff16600860003373ffffffffffffffffffffffffffffffffffffffff1673ffffffffffffffffffffffffffffffffffffffff1681526020019081526020016000206014546007811061097a576109796126d2565b5b602091828204019190069054906101000a900460ff1660ff161415610a0f57600960003373ffffffffffffffffffffffffffffffffffffffff1673ffffffffffffffffffffffffffffffffffffffff168152602001908152602001600020600081819054906101000a900460ff16809291906109f590612730565b91906101000a81548160ff021916908360ff160217905550505b60146000815480929190610a229061275a565b91905055506108ed565b6007600960003373ffffffffffffffffffffffffffffffffffffffff1673ffffffffffffffffffffffffffffffffffffffff16815260200190815260200160002060009054906101000a900460ff1660ff161415610aec57600a339080600181540180825580915050600190039060005260206000200160009091909190916101000a81548173ffffffffffffffffffffffffffffffffffffffff021916908373ffffffffffffffffffffffffffffffffffffffff160217905550610dec565b6006600960003373ffffffffffffffffffffffffffffffffffffffff1673ffffffffffffffffffffffffffffffffffffffff16815260200190815260200160002060009054906101000a900460ff1660ff161415610bac57600b339080600181540180825580915050600190039060005260206000200160009091909190916101000a81548173ffffffffffffffffffffffffffffffffffffffff021916908373ffffffffffffffffffffffffffffffffffffffff160217905550610deb565b6005600960003373ffffffffffffffffffffffffffffffffffffffff1673ffffffffffffffffffffffffffffffffffffffff16815260200190815260200160002060009054906101000a900460ff1660ff161415610c6c57600c339080600181540180825580915050600190039060005260206000200160009091909190916101000a81548173ffffffffffffffffffffffffffffffffffffffff021916908373ffffffffffffffffffffffffffffffffffffffff160217905550610dea565b6004600960003373ffffffffffffffffffffffffffffffffffffffff1673ffffffffffffffffffffffffffffffffffffffff16815260200190815260200160002060009054906101000a900460ff1660ff161415610d2c57600d339080600181540180825580915050600190039060005260206000200160009091909190916101000a81548173ffffffffffffffffffffffffffffffffffffffff021916908373ffffffffffffffffffffffffffffffffffffffff160217905550610de9565b6003600960003373ffffffffffffffffffffffffffffffffffffffff1673ffffffffffffffffffffffffffffffffffffffff16815260200190815260200160002060009054906101000a900460ff1660ff161415610de857600e339080600181540180825580915050600190039060005260206000200160009091909190916101000a81548173ffffffffffffffffffffffffffffffffffffffff021916908373ffffffffffffffffffffffffffffffffffffffff1602179055505b5b5b5b5b6000600760003373ffffffffffffffffffffffffffffffffffffffff1673ffffffffffffffffffffffffffffffffffffffff16815260200190815260200160002060006101000a81548160ff0219169083151502179055506000600960003373ffffffffffffffffffffffffffffffffffffffff1673ffffffffffffffffffffffffffffffffffffffff16815260200190815260200160002060006101000a81548160ff021916908360ff160217905550565b60135481565b6003543414610eb357600080fd5b60001515600760003373ffffffffffffffffffffffffffffffffffffffff1673ffffffffffffffffffffffffffffffffffffffff16815260200190815260200160002060009054906101000a900460ff16151514610f1057600080fd5b6001600760003373ffffffffffffffffffffffffffffffffffffffff1673ffffffffffffffffffffffffffffffffffffffff16815260200190815260200160002060006101000a81548160ff0219169083151502179055506000600660009054906101000a900473ffffffffffffffffffffffffffffffffffffffff1673ffffffffffffffffffffffffffffffffffffffff16600354604051610fb2906127d4565b60006040518083038185875af1925050503d8060008114610fef576040519150601f19603f3d011682016040523d82523d6000602084013e610ff4565b606091505b5050905080611038576040517f08c379a000000000000000000000000000000000000000000000000000000000815260040161102f90612846565b60405180910390fd5b6003546005600082825461104c9190612866565b9250508190555087600860003373ffffffffffffffffffffffffffffffffffffffff1673ffffffffffffffffffffffffffffffffffffffff1681526020019081526020016000206000600781106110a6576110a56126d2565b5b602091828204019190066101000a81548160ff021916908360ff16021790555086600860003373ffffffffffffffffffffffffffffffffffffffff1673ffffffffffffffffffffffffffffffffffffffff168152602001908152602001600020600160078110611119576111186126d2565b5b602091828204019190066101000a81548160ff021916908360ff16021790555085600860003373ffffffffffffffffffffffffffffffffffffffff1673ffffffffffffffffffffffffffffffffffffffff16815260200190815260200160002060026007811061118c5761118b6126d2565b5b602091828204019190066101000a81548160ff021916908360ff16021790555084600860003373ffffffffffffffffffffffffffffffffffffffff1673ffffffffffffffffffffffffffffffffffffffff1681526020019081526020016000206003600781106111ff576111fe6126d2565b5b602091828204019190066101000a81548160ff021916908360ff16021790555083600860003373ffffffffffffffffffffffffffffffffffffffff1673ffffffffffffffffffffffffffffffffffffffff168152602001908152602001600020600460078110611272576112716126d2565b5b602091828204019190066101000a81548160ff021916908360ff16021790555082600860003373ffffffffffffffffffffffffffffffffffffffff1673ffffffffffffffffffffffffffffffffffffffff1681526020019081526020016000206005600781106112e5576112e46126d2565b5b602091828204019190066101000a81548160ff021916908360ff16021790555081600860003373ffffffffffffffffffffffffffffffffffffffff1673ffffffffffffffffffffffffffffffffffffffff168152602001908152602001600020600660078110611358576113576126d2565b5b602091828204019190066101000a81548160ff021916908360ff1602179055505050505050505050565b600b818154811061139257600080fd5b906000526020600020016000915054906101000a900473ffffffffffffffffffffffffffffffffffffffff1681565b60096020528060005260406000206000915054906101000a900460ff1681565b600160009054906101000a900473ffffffffffffffffffffffffffffffffffffffff1681565b600d818154811061141757600080fd5b906000526020600020016000915054906101000a900473ffffffffffffffffffffffffffffffffffffffff1681565b600e818154811061145657600080fd5b906000526020600020016000915054906101000a900473ffffffffffffffffffffffffffffffffffffffff1681565b600f5481565b6000600660009054906101000a900473ffffffffffffffffffffffffffffffffffffffff1673ffffffffffffffffffffffffffffffffffffffff163373ffffffffffffffffffffffffffffffffffffffff16146114e757600080fd5b611534600160009054906101000a900473ffffffffffffffffffffffffffffffffffffffff167f000000000000000000000000000000000000000000000000000000000000000084612072565b6000604051806101000160405280600160009054906101000a900473ffffffffffffffffffffffffffffffffffffffff1673ffffffffffffffffffffffffffffffffffffffff168152602001600260009054906101000a900473ffffffffffffffffffffffffffffffffffffffff1673ffffffffffffffffffffffffffffffffffffffff168152602001610bb862ffffff1681526020013373ffffffffffffffffffffffffffffffffffffffff16815260200142815260200160018152602001848152602001600073ffffffffffffffffffffffffffffffffffffffff1681525090507f000000000000000000000000000000000000000000000000000000000000000073ffffffffffffffffffffffffffffffffffffffff1663db3e2198826040518263ffffffff1660e01b815260040161167091906129a9565b6020604051808303816000875af115801561168f573d6000803e3d6000fd5b505050506040513d601f19601f820116820180604052508101906116b391906129da565b9150828210156117445761170b600160009054906101000a900473ffffffffffffffffffffffffffffffffffffffff167f00000000000000000000000000000000000000000000000000000000000000006000612072565b611743600160009054906101000a900473ffffffffffffffffffffffffffffffffffffffff1633848661173e9190612a07565b6121c7565b5b50919050565b600a818154811061175a57600080fd5b906000526020600020016000915054906101000a900473ffffffffffffffffffffffffffffffffffffffff1681565b60076020528060005260406000206000915054906101000a900460ff1681565b60115481565b600660009054906101000a900473ffffffffffffffffffffffffffffffffffffffff1673ffffffffffffffffffffffffffffffffffffffff163373ffffffffffffffffffffffffffffffffffffffff161461180957600080fd5b6000606460055461181a9190612a6a565b90506055816118299190612a9b565b600f546118369190612866565b600f60008282546118479190612866565b9250508190555060048161185b9190612a9b565b6010546118689190612866565b601060008282546118799190612866565b9250508190555060058161188d9190612a9b565b60115461189a9190612866565b601160008282546118ab9190612866565b925050819055506003816118bf9190612a9b565b6012546118cc9190612866565b601260008282546118dd9190612866565b925050819055506002816118f19190612a9b565b6013546118fe9190612866565b6013600082825461190f9190612866565b925050819055506000600a8054905090506000600b8054905090506000600c8054905090506000600d8054905090506000600e80549050905060006014819055505b846014541015611a7e57600085600f5461196b9190612a6a565b90506000600a60145481548110611985576119846126d2565b5b9060005260206000200160009054906101000a900473ffffffffffffffffffffffffffffffffffffffff16905060008173ffffffffffffffffffffffffffffffffffffffff16836040516119d8906127d4565b60006040518083038185875af1925050503d8060008114611a15576040519150601f19603f3d011682016040523d82523d6000602084013e611a1a565b606091505b5050905080611a5e576040517f08c379a0000000000000000000000000000000000000000000000000000000008152600401611a5590612846565b60405180910390fd5b50505060146000815480929190611a749061275a565b9190505550611951565b60006014819055505b836014541015611bb457600084601054611aa19190612a6a565b90506000600b60145481548110611abb57611aba6126d2565b5b9060005260206000200160009054906101000a900473ffffffffffffffffffffffffffffffffffffffff16905060008173ffffffffffffffffffffffffffffffffffffffff1683604051611b0e906127d4565b60006040518083038185875af1925050503d8060008114611b4b576040519150601f19603f3d011682016040523d82523d6000602084013e611b50565b606091505b5050905080611b94576040517f08c379a0000000000000000000000000000000000000000000000000000000008152600401611b8b90612846565b60405180910390fd5b50505060146000815480929190611baa9061275a565b9190505550611a87565b60006014819055505b826014541015611cea57600083601154611bd79190612a6a565b90506000600c60145481548110611bf157611bf06126d2565b5b9060005260206000200160009054906101000a900473ffffffffffffffffffffffffffffffffffffffff16905060008173ffffffffffffffffffffffffffffffffffffffff1683604051611c44906127d4565b60006040518083038185875af1925050503d8060008114611c81576040519150601f19603f3d011682016040523d82523d6000602084013e611c86565b606091505b5050905080611cca576040517f08c379a0000000000000000000000000000000000000000000000000000000008152600401611cc190612846565b60405180910390fd5b50505060146000815480929190611ce09061275a565b9190505550611bbd565b60006014819055505b816014541015611e2057600082601254611d0d9190612a6a565b90506000600d60145481548110611d2757611d266126d2565b5b9060005260206000200160009054906101000a900473ffffffffffffffffffffffffffffffffffffffff16905060008173ffffffffffffffffffffffffffffffffffffffff1683604051611d7a906127d4565b60006040518083038185875af1925050503d8060008114611db7576040519150601f19603f3d011682016040523d82523d6000602084013e611dbc565b606091505b5050905080611e00576040517f08c379a0000000000000000000000000000000000000000000000000000000008152600401611df790612846565b60405180910390fd5b50505060146000815480929190611e169061275a565b9190505550611cf3565b60006014819055505b806014541015611f5657600081601354611e439190612a6a565b90506000600e60145481548110611e5d57611e5c6126d2565b5b9060005260206000200160009054906101000a900473ffffffffffffffffffffffffffffffffffffffff16905060008173ffffffffffffffffffffffffffffffffffffffff1683604051611eb0906127d4565b60006040518083038185875af1925050503d8060008114611eed576040519150601f19603f3d011682016040523d82523d6000602084013e611ef2565b606091505b5050905080611f36576040517f08c379a0000000000000000000000000000000000000000000000000000000008152600401611f2d90612846565b60405180910390fd5b50505060146000815480929190611f4c9061275a565b9190505550611e29565b600a6000611f64919061231c565b600b6000611f72919061231c565b600c6000611f80919061231c565b600d6000611f8e919061231c565b600e6000611f9c919061231c565b505050505050565b60125481565b600c8181548110611fba57600080fd5b906000526020600020016000915054906101000a900473ffffffffffffffffffffffffffffffffffffffff1681565b6008602052816000526040600020816007811061200557600080fd5b60209182820401919006915091509054906101000a900460ff1681565b7f000000000000000000000000000000000000000000000000000000000000000081565b600660009054906101000a900473ffffffffffffffffffffffffffffffffffffffff1681565b60105481565b6000808473ffffffffffffffffffffffffffffffffffffffff1663095ea7b360e01b85856040516024016120a7929190612af5565b604051602081830303815290604052907bffffffffffffffffffffffffffffffffffffffffffffffffffffffff19166020820180517bffffffffffffffffffffffffffffffffffffffffffffffffffffffff83818316178352505050506040516121119190612b8d565b6000604051808303816000865af19150503d806000811461214e576040519150601f19603f3d011682016040523d82523d6000602084013e612153565b606091505b5091509150818015612181575060008151148061218057508080602001905181019061217f9190612bd0565b5b5b6121c0576040517f08c379a00000000000000000000000000000000000000000000000000000000081526004016121b790612c49565b60405180910390fd5b5050505050565b6000808473ffffffffffffffffffffffffffffffffffffffff1663a9059cbb60e01b85856040516024016121fc929190612af5565b604051602081830303815290604052907bffffffffffffffffffffffffffffffffffffffffffffffffffffffff19166020820180517bffffffffffffffffffffffffffffffffffffffffffffffffffffffff83818316178352505050506040516122669190612b8d565b6000604051808303816000865af19150503d80600081146122a3576040519150601f19603f3d011682016040523d82523d6000602084013e6122a8565b606091505b50915091508180156122d657506000815114806122d55750808060200190518101906122d49190612bd0565b5b5b612315576040517f08c379a000000000000000000000000000000000000000000000000000000000815260040161230c90612cb5565b60405180910390fd5b5050505050565b508054600082559060005260206000209081019061233a919061233d565b50565b5b8082111561235657600081600090555060010161233e565b5090565b600073ffffffffffffffffffffffffffffffffffffffff82169050919050565b60006123858261235a565b9050919050565b6123958161237a565b82525050565b60006020820190506123b0600083018461238c565b92915050565b6000819050919050565b6123c9816123b6565b82525050565b60006020820190506123e460008301846123c0565b92915050565b600080fd5b6123f8816123b6565b811461240357600080fd5b50565b600081359050612415816123ef565b92915050565b600060208284031215612431576124306123ea565b5b600061243f84828501612406565b91505092915050565b600060ff82169050919050565b61245e81612448565b82525050565b60006020820190506124796000830184612455565b92915050565b61248881612448565b811461249357600080fd5b50565b6000813590506124a58161247f565b92915050565b600080600080600080600060e0888a0312156124ca576124c96123ea565b5b60006124d88a828b01612496565b97505060206124e98a828b01612496565b96505060406124fa8a828b01612496565b955050606061250b8a828b01612496565b945050608061251c8a828b01612496565b93505060a061252d8a828b01612496565b92505060c061253e8a828b01612496565b91505092959891949750929550565b60006125588261235a565b9050919050565b6125688161254d565b82525050565b6000602082019050612583600083018461255f565b92915050565b6125928161237a565b811461259d57600080fd5b50565b6000813590506125af81612589565b92915050565b6000602082840312156125cb576125ca6123ea565b5b60006125d9848285016125a0565b91505092915050565b60008115159050919050565b6125f7816125e2565b82525050565b600060208201905061261260008301846125ee565b92915050565b6000806040838503121561262f5761262e6123ea565b5b600061263d858286016125a0565b925050602061264e85828601612406565b9150509250929050565b6000819050919050565b600061267d6126786126738461235a565b612658565b61235a565b9050919050565b600061268f82612662565b9050919050565b60006126a182612684565b9050919050565b6126b181612696565b82525050565b60006020820190506126cc60008301846126a8565b92915050565b7f4e487b7100000000000000000000000000000000000000000000000000000000600052603260045260246000fd5b7f4e487b7100000000000000000000000000000000000000000000000000000000600052601160045260246000fd5b600061273b82612448565b915060ff82141561274f5761274e612701565b5b600182019050919050565b6000612765826123b6565b91507fffffffffffffffffffffffffffffffffffffffffffffffffffffffffffffffff82141561279857612797612701565b5b600182019050919050565b600081905092915050565b50565b60006127be6000836127a3565b91506127c9826127ae565b600082019050919050565b60006127df826127b1565b9150819050919050565b600082825260208201905092915050565b7f5472616e73616374696f6e206661696c65642e00000000000000000000000000600082015250565b60006128306013836127e9565b915061283b826127fa565b602082019050919050565b6000602082019050818103600083015261285f81612823565b9050919050565b6000612871826123b6565b915061287c836123b6565b9250827fffffffffffffffffffffffffffffffffffffffffffffffffffffffffffffffff038211156128b1576128b0612701565b5b828201905092915050565b6128c58161237a565b82525050565b600062ffffff82169050919050565b6128e3816128cb565b82525050565b6128f2816123b6565b82525050565b6129018161235a565b82525050565b6101008201600082015161291e60008501826128bc565b50602082015161293160208501826128bc565b50604082015161294460408501826128da565b50606082015161295760608501826128bc565b50608082015161296a60808501826128e9565b5060a082015161297d60a08501826128e9565b5060c082015161299060c08501826128e9565b5060e08201516129a360e08501826128f8565b50505050565b6000610100820190506129bf6000830184612907565b92915050565b6000815190506129d4816123ef565b92915050565b6000602082840312156129f0576129ef6123ea565b5b60006129fe848285016129c5565b91505092915050565b6000612a12826123b6565b9150612a1d836123b6565b925082821015612a3057612a2f612701565b5b828203905092915050565b7f4e487b7100000000000000000000000000000000000000000000000000000000600052601260045260246000fd5b6000612a75826123b6565b9150612a80836123b6565b925082612a9057612a8f612a3b565b5b828204905092915050565b6000612aa6826123b6565b9150612ab1836123b6565b9250817fffffffffffffffffffffffffffffffffffffffffffffffffffffffffffffffff0483118215151615612aea57612ae9612701565b5b828202905092915050565b6000604082019050612b0a600083018561238c565b612b1760208301846123c0565b9392505050565b600081519050919050565b60005b83811015612b47578082015181840152602081019050612b2c565b83811115612b56576000848401525b50505050565b6000612b6782612b1e565b612b7181856127a3565b9350612b81818560208601612b29565b80840191505092915050565b6000612b998284612b5c565b915081905092915050565b612bad816125e2565b8114612bb857600080fd5b50565b600081519050612bca81612ba4565b92915050565b600060208284031215612be657612be56123ea565b5b6000612bf484828501612bbb565b91505092915050565b7f5341000000000000000000000000000000000000000000000000000000000000600082015250565b6000612c336002836127e9565b9150612c3e82612bfd565b602082019050919050565b60006020820190508181036000830152612c6281612c26565b9050919050565b7f5354000000000000000000000000000000000000000000000000000000000000600082015250565b6000612c9f6002836127e9565b9150612caa82612c69565b602082019050919050565b60006020820190508181036000830152612cce81612c92565b905091905056fea264697066735822122061266d4c8e36c31c47f4ce4215e0f352178ee3706bbf9db3d4bc318a0ef53dec64736f6c634300080a0033",
  "immutableReferences": {
    "369": [
      {
        "length": 32,
        "start": 5391
      },
      {
        "length": 32,
        "start": 5657
      },
      {
        "length": 32,
        "start": 5861
      },
      {
        "length": 32,
        "start": 8228
      }
    ]
  },
  "source": "pragma solidity ^0.8.10;\n\n//import chainlink and uniswap contracts for random number generation\n/* import \"@chainlink/contracts/src/v0.8/ChainlinkClient.sol\"; */\nimport \"@uniswap/v3-periphery/contracts/interfaces/ISwapRouter.sol\";\nimport \"@uniswap/v3-periphery/contracts/libraries/TransferHelper.sol\";\n\ncontract Lottery {\n    ISwapRouter public immutable swapRouter;\n    address public WETH9 = 0xC02aaA39b223FE8D0A0e5C4F27eAD9083C756Cc2;\n    address public ETH = 0x0000000000000000000000000000000000000000;\n    address public LINK = 0xa36085F69e2889c224210F603D836748e7dC0088;\n\n    uint256 public costPerLine;\n    uint8[7] public winningNumbers;\n    uint256 public totalPrizePool;\n\n    //Stores the address of the Prize pool\n    address payable public poolOwner;\n    mapping(address => bool) public isAddressEntered;\n    mapping(address => uint8[7]) public pickedNumbers;\n    mapping(address => uint8) public correctNumbers;\n\n    //Winning Addresses Array\n    address payable[] public sevenCorrect;\n    address payable[] public sixCorrect;\n    address payable[] public fiveCorrect;\n    address payable[] public fourCorrect;\n    address payable[] public threeCorrect;\n\n    //Declare Prize Pools\n    uint256 public sevenPool;\n    uint256 public sixPool;\n    uint256 public fivePool;\n    uint256 public fourPool;\n    uint256 public threePool;\n\n    //variable used for For Loops\n    uint256 x;\n\n    constructor(uint256 _costPerLine, ISwapRouter _swapRouter) {\n        swapRouter = _swapRouter;\n        poolOwner = payable(msg.sender);\n        costPerLine = _costPerLine;\n    }\n\n    //Only Contract Owner can call this modifier\n    modifier restricted() {\n        require(msg.sender == poolOwner);\n        _;\n    }\n\n    function swapExactOutputSingle(uint256 amountInMaximum)\n        external\n        restricted\n        returns (uint256 amountIn)\n    {\n        // Transfer the specified amount of ETH to this contract.\n        /* TransferHelper.safeTransferFrom(\n            ETH,\n            msg.sender,\n            address(this),\n            amountInMaximum\n        ); */\n        TransferHelper.safeApprove(ETH, address(swapRouter), amountInMaximum);\n        ISwapRouter.ExactOutputSingleParams memory params = ISwapRouter\n            .ExactOutputSingleParams({\n                tokenIn: ETH,\n                tokenOut: LINK,\n                fee: 3000,\n                recipient: msg.sender,\n                deadline: block.timestamp,\n                amountOut: 1,\n                amountInMaximum: amountInMaximum,\n                sqrtPriceLimitX96: 0\n            });\n        // Executes the swap returning the amountIn needed to spend to receive the desired amountOut.\n        amountIn = swapRouter.exactOutputSingle(params);\n        // For exact output swaps, the amountInMaximum may not have all been spent.\n        // If the actual amount spent (amountIn) is less than the specified maximum amount, we must refund the msg.sender and approve the swapRouter to spend 0.\n        if (amountIn < amountInMaximum) {\n            TransferHelper.safeApprove(ETH, address(swapRouter), 0);\n            TransferHelper.safeTransfer(\n                ETH,\n                msg.sender,\n                amountInMaximum - amountIn\n            );\n        }\n    }\n\n    //Takes in 7 chosen numbers and assigns them to the pickedNumbers mapping.\n    //TRY CLEANING UP\n    function chooseNumbers(\n        uint8 _0,\n        uint8 _1,\n        uint8 _2,\n        uint8 _3,\n        uint8 _4,\n        uint8 _5,\n        uint8 _6\n    ) public payable {\n        require(msg.value == costPerLine);\n        require(isAddressEntered[msg.sender] == false);\n        isAddressEntered[msg.sender] = true;\n        (bool success, ) = poolOwner.call{value: costPerLine}(\"\");\n        require(success, \"Transaction failed.\");\n        totalPrizePool += costPerLine;\n        //Assign selected numbers to mapping\n        pickedNumbers[msg.sender][0] = _0;\n        pickedNumbers[msg.sender][1] = _1;\n        pickedNumbers[msg.sender][2] = _2;\n        pickedNumbers[msg.sender][3] = _3;\n        pickedNumbers[msg.sender][4] = _4;\n        pickedNumbers[msg.sender][5] = _5;\n        pickedNumbers[msg.sender][6] = _6;\n    }\n\n    //NEEDS WORK! UNFINISHED\n    function pickWinningNumbers() public payable restricted {\n        //Temporarily set winningNumbers to 1 through 7 for testing\n        winningNumbers[0] = 1;\n        winningNumbers[1] = 2;\n        winningNumbers[2] = 3;\n        winningNumbers[3] = 4;\n        winningNumbers[4] = 5;\n        winningNumbers[5] = 6;\n        winningNumbers[6] = 7;\n    }\n\n    /* Check Correct Numbers and add up the total correct answers to the\n    correctNumbers variable. Also resets the playerWinningNumbers mapping\n    back to a status of false. */\n    function checkNumbers() public {\n        require(isAddressEntered[msg.sender]);\n\n        //Loop through each arrayAddress in the array\n        for (x = 0; x < 7; x++) {\n            if (pickedNumbers[msg.sender][x] == winningNumbers[x]) {\n                correctNumbers[msg.sender]++;\n            }\n        }\n\n        //Add 1 to current prize pool if applicable\n        if (correctNumbers[msg.sender] == 7) {\n            //85% of Prize Pool\n            sevenCorrect.push(payable(msg.sender));\n        } else if (correctNumbers[msg.sender] == 6) {\n            //4% of Prize Pool\n            sixCorrect.push(payable(msg.sender));\n        } else if (correctNumbers[msg.sender] == 5) {\n            //5% of Prize Pool this is correct as there are more winners\n            fiveCorrect.push(payable(msg.sender));\n        } else if (correctNumbers[msg.sender] == 4) {\n            //3% of Prize Pool\n            fourCorrect.push(payable(msg.sender));\n        } else if (correctNumbers[msg.sender] == 3) {\n            //2% of Prize Pool\n            threeCorrect.push(payable(msg.sender));\n        }\n\n        //Reset isAddressEntered & correctNumbers\n        isAddressEntered[msg.sender] = false;\n        correctNumbers[msg.sender] = 0;\n    }\n\n    //Distributes Prize and resets contract\n    function weeklyReset() public payable restricted {\n        /* Divides the prize pool into 100 pieces as decimals are not uint in\n        solidity. Then distribute 88 pieces to say sevenPool as 88% of the prize\n        working the same as doing * 0.88 */\n        uint256 dividedPool = (totalPrizePool / 100);\n        //Using += to carry over previous balance is prize not won\n        sevenPool += sevenPool + (dividedPool * 85);\n        sixPool += sixPool + (dividedPool * 4);\n        fivePool += fivePool + (dividedPool * 5);\n        fourPool += fourPool + (dividedPool * 3);\n        threePool += threePool + (dividedPool * 2);\n        //Last 1% of dividedPool is used for gas\n\n        //Create variables for use in for loops\n        uint256 totalSeven = sevenCorrect.length;\n        uint256 totalSix = sixCorrect.length;\n        uint256 totalFive = fiveCorrect.length;\n        uint256 totalFour = fourCorrect.length;\n        uint256 totalThree = threeCorrect.length;\n\n        /* If using .length property then the for loop will not complete because\n        after each run the account is deleted from the array and paid as x grows\n        in value to loop through array .length would be shrinking not paying out\n        everyone therefore a static variable is needed */\n        for (x = 0; x < totalSeven; x++) {\n            uint256 prize = sevenPool / totalSeven;\n            address payable winner = sevenCorrect[x];\n            (bool success, ) = winner.call{value: prize}(\"\");\n            require(success, \"Transaction failed.\");\n        }\n        for (x = 0; x < totalSix; x++) {\n            uint256 prize = sixPool / totalSix;\n            address payable winner = sixCorrect[x];\n            (bool success, ) = winner.call{value: prize}(\"\");\n            require(success, \"Transaction failed.\");\n        }\n        for (x = 0; x < totalFive; x++) {\n            uint256 prize = fivePool / totalFive;\n            address payable winner = fiveCorrect[x];\n            (bool success, ) = winner.call{value: prize}(\"\");\n            require(success, \"Transaction failed.\");\n        }\n        for (x = 0; x < totalFour; x++) {\n            uint256 prize = fourPool / totalFour;\n            address payable winner = fourCorrect[x];\n            (bool success, ) = winner.call{value: prize}(\"\");\n            require(success, \"Transaction failed.\");\n        }\n        for (x = 0; x < totalThree; x++) {\n            uint256 prize = threePool / totalThree;\n            address payable winner = threeCorrect[x];\n            (bool success, ) = winner.call{value: prize}(\"\");\n            require(success, \"Transaction failed.\");\n        }\n\n        delete sevenCorrect;\n        delete sixCorrect;\n        delete fiveCorrect;\n        delete fourCorrect;\n        delete threeCorrect;\n    }\n}\n",
  "sourcePath": "/home/dante/Documents/CryptoLottery/contracts/Lottery.sol",
  "compiler": {
    "name": "solc",
    "version": "0.8.10+commit.fc410830.Emscripten.clang"
  },
  "schemaVersion": "3.4.1",
  "updatedAt": "2021-11-28T22:51:53.837Z",
  "devdoc": {
    "kind": "dev",
    "methods": {},
    "version": 1
  },
  "userdoc": {
    "kind": "user",
    "methods": {},
    "version": 1
  }
}